S01D00002E2F44656275672F67726170686963646973706C61792E73313990
S315200000000248854600F0D1F8FEE7C04600C0012030
S3152000001080B500AF0C4B00221A600C4B29221A60C7
S315200000200B4B00221A60084B05221A60C046064B6D
S315200000301A6880235B021340F9D0034B00221A6012
S31520000040C046BD4680BDC04610E000E014E000E09A
S3152000005018E000E080B500AFFFF7DAFFFFF7D8FF22
S31520000060C046BD4680BD80B582B000AF786007E04F
S31520000070FFF7CEFFFFF7CCFFFFF7CAFFFFF7C8FF5A
S315200000807B685A1E7A60002BF2D1C046BD4602B06C
S3152000009080BD80B582B000AF786002E00A20FFF70D
S315200000A0E2FF7B685A1E7A60002BF7D1C046BD4618
S315200000B002B080BD80B582B000AF0200FB1D1A7071
S315200000C00A4B1B78DAB20949FB1D1B781343DBB2B6
S315200000D00B70064B1B78DBB2044A04218B43DBB240
S315200000E01370C046BD4602B080BDC0461410024003
S315200000F080B582B000AF0200FB1D1A700C4B1B7836
S31520000100DBB25BB2FA1D127852B2D24352B213401E
S315200001105AB2074BD2B21A70054B1B78DBB2044A8F
S3152000012004218B43DBB21370C046BD4602B080BDAE
S315200001301410024080B582B000AF0200FB1D1A7079
S31520000140FB1D1B78012B1DD002DC002B05D020E0E7
S31520000150082B09D0102B0ED01BE00820FFF7C8FF74
S315200001601020FFF7C5FF14E00820FFF7A3FF10209B
S31520000170FFF7BEFF0DE00820FFF7BAFF1020FFF7BC
S3152000018099FF06E00820FFF795FF1020FFF792FF62
S31520000190C046C046BD4602B080BD80B500AF102027
S315200001A0FFF788FFC046BD4680BD80B500AF00235F
S30D200001B01800BD4680BDC046C3
S70520000000DA
