S01D00002E2F44656275672F67726170686963646973706C61792E73313990
S315200000000248854600F020FAFEE7C04600C00120DF
S3152000001080B500AF0C4B00221A600C4B29221A60C7
S315200000200B4B00221A60084B05221A60C046064B6D
S315200000301A6880235B021340F9D0034B00221A6012
S31520000040C046BD4680BDC04610E000E014E000E09A
S3152000005018E000E080B500AFFFF7DAFFFFF7D8FF22
S31520000060C046BD4680BD80B582B000AF786007E04F
S31520000070FFF7CEFFFFF7CCFFFFF7CAFFFFF7C8FF5A
S315200000807B685A1E7A60002BF2D1C046BD4602B06C
S3152000009080BD80B582B000AF786002E00A20FFF70D
S315200000A0E2FF7B685A1E7A60002BF7D1C046BD4618
S315200000B002B080BD80B582B000AF0200FB1D1A7071
S315200000C00A4B1B78DAB20949FB1D1B781343DBB2B6
S315200000D00B70064B1B78DBB2044A04218B43DBB240
S315200000E01370C046BD4602B080BDC0461410024003
S315200000F080B582B000AF0200FB1D1A700A4B1B7838
S31520000100DBB25BB2FA1D127804210A43D2B252B294
S31520000110D24352B213405AB2034BD2B21A70C046DF
S31520000120BD4602B080BDC0461410024080B582B0E4
S3152000013000AF0200FB1D1A70FB1D1B78082B0CD08C
S3152000014002DC002B05D01AE0102B0DD0182B12D074
S3152000015015E01820FFF7CCFF11E00820FFF7AAFFD3
S315200001601020FFF7C5FF0AE01020FFF7A3FF0820A5
S31520000170FFF7BEFF03E01820FFF79CFFC046C046EE
S31520000180BD4602B080BD80B582B000AF4020FFF7EB
S31520000190AFFF164B164A1A600120FFF7A9FF02206F
S315200001A0FFF788FFFFF756FF4020FFF783FFFFF793
S315200001B051FF104B1B78DAB2FB1D7F218A431A7040
S315200001C04020FFF795FFFFF745FFFB1D1B78002B0F
S315200001D000D0E9E7C0464020FFF76CFF034B064AF4
S315200001E01A60C046BD4602B080BDC046001002401F
S315200001F055550000111002405555555580B584B00F
S3152000020000AF0200FB1D1A704020FFF771FF1C4B48
S315200002101C4A1A600320FFF74DFFFB1D1B781800B0
S31520000220FFF784FFFFF716FF4020FFF743FFFFF796
S3152000023011FF154A0F23FB1812781A704020FFF77A
S3152000024057FF0F4B114A1A60FB1D1B7808221340DB
S3152000025004D00820FFF76AFFFFF795FFFB1D1B78E8
S315200002601022134004D01020FFF760FFFFF78BFF0A
S315200002700F23FB181B781800BD4604B080BDC0466E
S315200002800010024055550000111002405555555595
S3152000029080B582B000AF0200FB1D1A70FB1D1B78D3
S315200002A01800FFF7ABFFFB1D1B781800FFF7A6FF12
S315200002B003001800BD4602B080BD80B582B000AFF5
S315200002C00200FB1D1A70BB1D0A1C1A70194AFB1D61
S315200002D01B781370BB1D1B781800FFF727FFFFF74D
S315200002E0B9FE4020FFF7E6FEFFF7B4FE4020FFF7F9
S315200002F0FFFEBB1D1B780822134004D00820FFF701
S3152000030015FFFFF740FFBB1D1B781022134004D0BA
S315200003101020FFF70BFFFFF736FF064B00221A705F
S315200003204020FFF7C7FE0020FFF700FFC046BD466E
S3152000033002B080BD1510024080B582B000AF020029
S31520000340FB1D1A70BB1D0A1C1A704020FFF7D0FE39
S31520000350BB1D1B781800FFF7E9FE0320FFF7C8FE38
S31520000360BB1D1A78FB1D1B7811001800FFF7A5FF8F
S31520000370C046BD4602B080BD80B582B000AF020047
S31520000380FB1D1A70BB1D0A1C1A704020FFF7B0FE19
S31520000390BB1D1B781800FFF7C9FE0120FFF78AFE58
S315200003A00220FFF7A5FEBB1D1A78FB1D1B78110046
S315200003B01800FFF782FFC046BD4602B080BD80B55B
S315200003C000AF4020FFF776FE0A20FFF74CFE78208C
S315200003D0FFF78EFE1E20FFF75CFE2020FFF76AFE49
S315200003E06420FFF756FE18213E20FFF7A5FF1821AF
S315200003F03F20FFF7A1FF1821C020FFF79DFF1821FE
S315200004004020FFF799FF1821B820FFF795FF00201D
S31520000410FFF78CFEC046BD4680BD80B500AF064BBB
S31520000420064A1A60064B00221A80064B034A1A60B7
S31520000430C046BD4680BDC0460010024055555555A4
S31520000440081002402010024080B500AFFFF7E5FFFC
S31520000450FFF7B5FF18214A20FFF76EFF1821B920B4
S31520000460FFF76AFF1821FF20FFF766FF0023180019
S30920000470BD4680BD22
S70520000000DA
