S01D00002E2F44656275672F67726170686963646973706C61792E73313990
S315200000000248854600F0E4F9FEE7C04600C001201C
S3152000001080B500AF0C4B00221A600C4B29221A60C7
S315200000200B4B00221A60084B05221A60C046064B6D
S315200000301A6880235B021340F9D0034B00221A6012
S31520000040C046BD4680BDC04610E000E014E000E09A
S3152000005018E000E080B500AFFFF7DAFFFFF7D8FF22
S31520000060C046BD4680BD80B582B000AF786007E04F
S31520000070FFF7CEFFFFF7CCFFFFF7CAFFFFF7C8FF5A
S315200000807B685A1E7A60002BF2D1C046BD4602B06C
S3152000009080BD80B582B000AF786002E00A20FFF70D
S315200000A0E2FF7B685A1E7A60002BF7D1C046BD4618
S315200000B002B080BD80B582B000AF0200FB1D1A7071
S315200000C00A4B1B78DAB20949FB1D1B781343DBB2B6
S315200000D00B70064B1B78DBB2044A04218B43DBB240
S315200000E01370C046BD4602B080BDC0461410024003
S315200000F080B582B000AF0200FB1D1A700C4B1B7836
S31520000100DBB25BB2FA1D127852B2D24352B213401E
S315200001105AB2074BD2B21A70054B1B78DBB2044A8F
S3152000012004218B43DBB21370C046BD4602B080BDAE
S315200001301410024080B582B000AF0200FB1D1A7079
S31520000140FB1D1B78012B1DD002DC002B05D020E0E7
S31520000150082B09D0102B0ED01BE00820FFF7C8FF74
S315200001601020FFF7C5FF14E00820FFF7A3FF10209B
S31520000170FFF7BEFF0DE00820FFF7BAFF1020FFF7BC
S3152000018099FF06E00820FFF795FF1020FFF792FF62
S31520000190C046C046BD4602B080BD80B500AF4020F7
S315200001A0FFF7A6FF134B55221A800120FFF7A0FF69
S315200001B00220FFF77FFFFFF74DFF4020FFF77AFF72
S315200001C0FFF748FF4020FFF793FFFFF743FF0A4B57
S315200001D01B78DBB21A0080231340802B00D0ECE77B
S315200001E0C0464020FFF766FF024B044A1A80C046ED
S315200001F0BD4680BD0010024001100240555500004A
S3152000020080B584B000AF0200FB1D1A704020FFF7B6
S315200002106FFF1D4B2D221A800120FFF74BFF022076
S31520000220FFF748FFFB1D1B781800FFF783FFFFF73A
S3152000023011FF4020FFF73EFFFFF70CFF134A0F2365
S31520000240FB1812781A704020FFF752FF0E4B104A07
S315200002501A80FB1D1B780822134004D00820FFF7C4
S3152000026069FFFFF79AFFFB1D1B781022134004D06D
S315200002701020FFF75FFFFFF790FF0F23FB181B7877
S315200002801800BD4604B080BD001002400110024097
S315200002905555000080B582B000AF0200FB1D1A70D4
S315200002A0BB1D0A1C1A701A4AFB1D1B781370BB1D36
S315200002B01B781800FFF73EFFFFF7CCFE4020FFF724
S315200002C0F9FEFFF7C7FE4020FFF712FFBB1D1B7884
S315200002D00822134004D00820FFF72CFFFFF75DFF0C
S315200002E0BB1D1B781022134004D01020FFF722FFDD
S315200002F0FFF753FF064B00221A704020FFF7DAFE65
S315200003000020FFF717FFC046BD4602B080BDC0469D
S315200003100110024080B582B000AF0200FB1D1A70AA
S31520000320BB1D0A1C1A704020FFF7E2FEBB1D1B787E
S315200003301800FFF7FFFE0120FFF7DAFE0220FFF785
S31520000340D7FEBB1D1A78FB1D1B7811001800FFF77E
S31520000350A1FFC046BD4602B080BD80B582B000AFC9
S315200003600200FB1D1A70BB1D0A1C1A704020FFF7E5
S31520000370BFFEBB1D1B781800FFF7DCFE0120FFF730
S3152000038099FE0220FFF7B4FEBB1D1A78FB1D1B78D1
S3152000039011001800FFF77EFFC046BD4602B080BDA3
S315200003A080B500AF4020FFF785FE0A20FFF75BFEF1
S315200003B0C046BD4680BD80B500AF034B034A1A60D8
S315200003C0C046BD4680BDC046001002405555555515
S311200003D080B500AF00231800BD4680BD9C
S70520000000DA
