S01D00002E2F44656275672F67726170686963646973706C61792E73313990
S315200000000248854600F02EFAFEE7C04600C00120D1
S3152000001080B500AF0C4B00221A600C4B29221A60C7
S315200000200B4B00221A60084B05221A60C046064B6D
S315200000301A6880235B021340F9D0034B00221A6012
S31520000040C046BD4680BDC04610E000E014E000E09A
S3152000005018E000E080B500AFFFF7DAFFFFF7D8FF22
S31520000060C046BD4680BD80B582B000AF786007E04F
S31520000070FFF7CEFFFFF7CCFFFFF7CAFFFFF7C8FF5A
S315200000807B685A1E7A60002BF2D1C046BD4602B06C
S3152000009080BD80B582B000AF786002E00A20FFF70D
S315200000A0E2FF7B685A1E7A60002BF7D1C046BD4618
S315200000B002B080BD80B582B000AF0200FB1D1A7071
S315200000C00A4B1B78DAB20949FB1D1B781343DBB2B6
S315200000D00B70064B1B78DBB2044A04218B43DBB240
S315200000E01370C046BD4602B080BDC0461410024003
S315200000F080B582B000AF0200FB1D1A700C4B1B7836
S31520000100DBB25BB2FA1D127852B2D24352B213401E
S315200001105AB2074BD2B21A70054B1B78DBB2044A8F
S3152000012004218B43DBB21370C046BD4602B080BDAE
S315200001301410024080B582B000AF0200FB1D1A7079
S31520000140FB1D1B78012B1DD002DC002B05D020E0E7
S31520000150082B09D0102B0ED01BE00820FFF7C8FF74
S315200001601020FFF7C5FF14E00820FFF7A3FF10209B
S31520000170FFF7BEFF0DE00820FFF7BAFF1020FFF7BC
S3152000018099FF06E00820FFF795FF1020FFF792FF62
S31520000190C046C046BD4602B080BD80B500AF4020F7
S315200001A0FFF7A6FF0F4B55221A800120FFF7A0FF6D
S315200001B00220FFF77FFFFFF74DFF4020FFF77AFF72
S315200001C0FFF748FF4020FFF793FFFFF743FFC046A6
S315200001D04020FFF76FFF034B034A1A80C046BD46F7
S315200001E080BDC046001002405555000080B584B041
S315200001F000AF0200FB1D1A704020FFF779FF1D4B50
S315200002002D221A800120FFF755FF0220FFF752FF0B
S31520000210FB1D1B781800FFF78DFFFFF71BFF402003
S31520000220FFF748FFFFF716FF134A0F23FB18127834
S315200002301A704020FFF75CFF0E4B104A1A80FB1DF8
S315200002401B780822134004D00820FFF773FFFFF71E
S31520000250A4FFFB1D1B781022134004D01020FFF7AB
S3152000026069FFFFF79AFF0F23FB181B781800BD467E
S3152000027004B080BD00100240011002405555000018
S3152000028080B582B000AF0200FB1D1A70BB1D0A1C90
S315200002901A701A4AFB1D1B781370BB1D1B78180099
S315200002A0FFF748FFFFF7D6FE4020FFF703FFFFF7D3
S315200002B0D1FE4020FFF71CFFBB1D1B7808221340F0
S315200002C004D00820FFF736FFFFF767FFBB1D1B781A
S315200002D01022134004D01020FFF72CFFFFF75DFFFC
S315200002E0064B00221A704020FFF7E4FE0020FFF79D
S315200002F021FFC046BD4602B080BDC0460110024067
S3152000030080B582B000AF0200FB1D1A70BB1D0A1C0F
S315200003101A704020FFF7ECFEBB1D1B781800FFF774
S3152000032009FF0120FFF7E4FE0220FFF7E1FEBB1DD7
S315200003301A78FB1D1B7811001800FFF7A1FFC04695
S31520000340BD4602B080BD80B582B000AF0200FB1D65
S315200003501A70BB1D0A1C1A704020FFF7C9FEBB1D70
S315200003601B781800FFF7E6FE0120FFF7A3FE022008
S31520000370FFF7BEFEBB1D1A78FB1D1B781100180067
S31520000380FFF77EFFC046BD4602B080BD80B582B075
S3152000039000AF00237B601EE07B685BB2482252429E
S315200003A013435BB2DBB218211800FFF7A9FF18210F
S315200003B00220FFF7A5FF00233B6006E0182100205E
S315200003C0FFF7C1FF3B6801333B603B683E2BF5DD01
S315200003D07B6801337B607B68062BDDDDC046BD462E
S315200003E002B080BD80B500AF4020FFF763FE0A2033
S315200003F0FFF739FE0820FFF77BFE1020FFF778FE77
S315200004002020FFF775FE4020FFF772FE1E20FFF723
S3152000041040FE2020FFF74EFE18213E20FFF770FFFA
S3152000042018213F20FFF76CFF18210C20FFF768FFEB
S3152000043018210220FFF764FF1821B820FFF760FF7C
S315200004400020FFF777FEC046BD4680BD80B500AFD1
S31520000450024B034A1A60C046BD4680BD00100240CA
S315200004605555555580B500AFFFF7F0FFFFF7BAFF9A
S31520000470FFF78CFF18210A20FFF742FF1821B92029
S31520000480FFF73EFF1821FF20FFF73AFF0023180051
S30920000490BD4680BD02
S70520000000DA
