S01D00002E2F44656275672F67726170686963646973706C61792E73313990
S315200000000248854600F048FAFEE7C04600C00120B7
S3152000001080B500AF0C4B00221A600C4B29221A60C7
S315200000200B4B00221A60084B05221A60C046064B6D
S315200000301A6880235B021340F9D0034B00221A6012
S31520000040C046BD4680BDC04610E000E014E000E09A
S3152000005018E000E080B500AFFFF7DAFFFFF7D8FF22
S31520000060C046BD4680BD80B582B000AF786007E04F
S31520000070FFF7CEFFFFF7CCFFFFF7CAFFFFF7C8FF5A
S315200000807B685A1E7A60002BF2D1C046BD4602B06C
S3152000009080BD80B582B000AF786002E00A20FFF70D
S315200000A0E2FF7B685A1E7A60002BF7D1C046BD4618
S315200000B002B080BD80B582B000AF0200FB1D1A7071
S315200000C00A4B1B78DAB20949FB1D1B781343DBB2B6
S315200000D00B70064B1B78DBB2044A04218B43DBB240
S315200000E01370C046BD4602B080BDC0461410024003
S315200000F080B582B000AF0200FB1D1A70084B1B783A
S31520000100DBB2FA1D127804210A43D2B2D243D2B20C
S3152000011003491340DBB20B70C046BD4602B080BD1A
S315200001201410024080B582B000AF0200FB1D1A7089
S31520000130FB1D1B78082B0CD002DC002B05D01AE007
S31520000140102B0DD0182B12D015E01820FFF7D0FF5A
S3152000015011E00820FFF7AEFF1020FFF7C9FF0AE0E5
S315200001601020FFF7A7FF0820FFF7C2FF03E01820A3
S31520000170FFF7A0FFC046C046BD4602B080BD80B591
S3152000018082B000AF4020FFF7B3FF164B164A1A6025
S315200001900120FFF7ADFF0220FFF78CFFFFF75AFF84
S315200001A04020FFF787FFFFF755FF104B1B78DAB289
S315200001B0FB1D7F218A431A704020FFF799FFFFF726
S315200001C049FFFB1D1B78002B00D0E9E7C0464020E5
S315200001D0FFF770FF034B064A1A60C046BD4602B0C1
S315200001E080BDC04600100240555500001110024047
S315200001F05555555580B584B000AF0200FB1D1A70C9
S315200002004020FFF775FF1C4B1C4A1A600320FFF79E
S3152000021051FFFB1D1B781800FFF784FFFFF71AFF1D
S315200002204020FFF747FFFFF715FF154A0F23FB185E
S3152000023012781A704020FFF75BFF0F4B114A1A60A5
S31520000240FB1D1B780822134004D00820FFF76AFF05
S31520000250FFF795FFFB1D1B781022134004D01020BA
S31520000260FFF760FFFFF78BFF0F23FB181B781800A3
S31520000270BD4604B080BDC046001002405555000062
S31520000280111002405555555580B582B000AF020079
S31520000290FB1D1A70FB1D1B781800FFF7ABFFFB1D1B
S315200002A01B781800FFF7A6FF03001800BD4602B012
S315200002B080BD80B582B000AF0200FB1D1A70BB1D49
S315200002C00A1C1A70194AFB1D1B781370BB1D1B785C
S315200002D01800FFF727FFFFF7BDFE4020FFF7EAFED5
S315200002E0FFF7B8FE4020FFF703FFBB1D1B7808224F
S315200002F0134004D00820FFF715FFFFF740FFBB1D72
S315200003001B781022134004D01020FFF70BFFFFF7B5
S3152000031036FF064B00221A704020FFF7CBFE002046
S31520000320FFF700FFC046BD4602B080BD1510024053
S3152000033080B582B000AF0200FB1D1A70BB1D0A1CDF
S315200003401A704020FFF7D4FEBB1D1B781800FFF75C
S31520000350E9FE0320FFF7CCFEBB1D1A78FB1D1B7898
S3152000036011001800FFF7A5FFC046BD4602B080BDAC
S3152000037080B582B000AF0200FB1D1A70BB1D0A1C9F
S315200003801A704020FFF7B4FEBB1D1B781800FFF73C
S31520000390C9FE0120FFF78EFE0220FFF7A9FEBB1D36
S315200003A01A78FB1D1B7811001800FFF782FFC04644
S315200003B0BD4602B080BD80B582B000AF00237B6011
S315200003C01EE07B685BB24822524213435BB2DBB22B
S315200003D018211800FFF7ACFF18214020FFF7A8FFCF
S315200003E000233B6006E018210020FFF7C1FF3B6891
S315200003F001333B603B683E2BF5DD7B6801337B6038
S315200004007B68062BDDDDC046BD4602B080BD80B5CB
S3152000041000AF4020FFF74EFE0A20FFF724FE78208B
S31520000420FFF766FE1E20FFF734FE2020FFF742FE70
S315200004306420FFF72EFE18213E20FFF779FF1821B2
S315200004403F20FFF775FF1821C020FFF771FF182105
S315200004504020FFF76DFF1821B820FFF769FF002025
S31520000460FFF760FEC046BD4680BD80B500AF064B97
S31520000470064A1A60064B00221A80064B034A1A6067
S31520000480C046BD4680BDC046001002405555555554
S31520000490081002402010024080B500AFFFF7E5FFAC
S315200004A0FFF7B5FF18214A20FFF742FF1821B92090
S315200004B0FFF73EFF1821FF20FFF75AFF0023180001
S309200004C0BD4680BDD2
S70520000000DA
