S01600002E2F44656275672F737461727475702E73313958
S315200000000248854600F026F9FEE7C04600C00120DA
S3152000001080B500AF064BAA22D2011A80054B0F22CB
S315200000201A70054BAA221A80C046BD4680BDC0461E
S31520000030000C0240050C02401C0C024080B582B028
S3152000004000AF78600F4B00221A707B68012B02D11B
S315200000500C4B10221A707B68022B02D1094B2022EE
S315200000601A707B68032B02D1064B40221A707B68DC
S31520000070042B02D1034B80221A70C046BD4602B023
S3152000008080BDC046150C024080B500AF0F4B1B78D3
S31520000090DBB2012B01D1012314E00C4B1B78DBB220
S315200000A0022B01D102230DE0084B1B78DBB2042B77
S315200000B001D1042306E0054B1B78DBB2082B01D1C6
S315200000C00823FFE71800BD4680BDC046110C02403C
S315200000D090B583B000AF01237B60A2E07B68180057
S315200000E0FFF7ACFFFC1CFFF7CFFF03002370FB1CC0
S315200000F01B78002B00D191E0FB1C1B78012B04D12F
S315200001007B68012B01D106238FE0FB1C1B78022B79
S3152000011004D17B68012B01D15B2386E0FB1C1B7875
S31520000120042B04D17B68012B01D14F237DE0FB1CDE
S315200001301B78082B04D17B68012B01D1772374E02F
S31520000140FB1C1B78012B04D17B68022B01D1662373
S315200001506BE0FB1C1B78022B04D17B68022B01D1A0
S315200001606D2362E0FB1C1B78042B04D17B68022BD9
S3152000017001D17D2359E0FB1C1B78082B04D17B6819
S31520000180022B01D15B2350E0FB1C1B78012B04D1F1
S315200001907B68032B01D1072347E0FB1C1B78022B2E
S315200001A004D17B68032B01D17F233EE0FB1C1B7807
S315200001B0042B04D17B68032B01D16F2335E0FB1C74
S315200001C01B78082B04D17B68032B01D139232CE023
S315200001D0FB1C1B78012B04D17B68042B01D17623D1
S315200001E023E0FB1C1B78022B04D17B68042B01D156
S315200001F03F231AE0FB1C1B78042B04D17B68042BBD
S3152000020001D1082311E0FB1C1B78082B04D17B6845
S31520000210042B01D15D2308E0FF2306E07B68013330
S315200002207B607B68042B00DC58E71800BD4603B0D2
S3152000023090BD80B582B000AF0200FB1D1A70044A43
S31520000240FB1D1B781370C046BD4602B080BDC0465C
S31520000250140C024080B500AFFFF7DAFE044B3B22B8
S315200002601A70FFF735FF03001800FFF7E2FFF5E7E6
S30920000270140C024002
S70520000000DA
