S01B00002E2F44656275672F6173636969646973706C61792E73313967
S315200000000248854600F0A1F9FEE7C04600C001205F
S3152000001080B500AF054B064A1A60064B00221A60CF
S31520000020054B034A1A60C046BD4680BD00100240FB
S3152000003055555555101002402010024080B500AF8E
S315200000400C4B00221A600C4B29221A600B4B002203
S315200000501A60084B05221A60C046064B1A68802390
S315200000605B021340F9D0034B00221A60C046BD46FE
S3152000007080BDC04610E000E014E000E018E000E09B
S3152000008080B582B000AF786007E0FFF7D7FFFFF7B3
S31520000090D5FFFFF7D3FFFFF7D1FF7B685A1E7A60A3
S315200000A0002BF2D1C046BD4602B080BD80B582B0DD
S315200000B000AF786002E00A20FFF7E2FF7B685A1E55
S315200000C07A60002BF7D1C046BD4602B080BD80B510
S315200000D082B000AF0200FB1D1A70084B1B78DAB203
S315200000E0FB1D1B781343DBB2044A04210B43DBB20E
S315200000F01370C046BD4602B080BDC04614100240F3
S3152000010080B582B000AF0200FB1D1A700A4B1B7827
S31520000110DBB25BB2FA1D127852B2D24352B204213C
S315200001200A4352B213405AB2034BD2B21A70C04697
S31520000130BD4602B080BDC0461410024080B582B0D4
S3152000014000AF0200FB1D1A70FFF778FF4020FFF773
S31520000150BEFF074AFB1D1B781370FFF76FFF402079
S31520000160FFF7CEFFFFF76AFFC046BD4602B080BD4F
S315200001701510024080B582B000AF4020FFF7A7FFE0
S31520000180FFF75CFFFFF75AFF064AFB1D12781A702D
S315200001904020FFF7B5FFFB1D1B781800BD4602B0B7
S315200001A080BDC0461010024080B582B000AF02006C
S315200001B0FB1D1A700120FFF7A3FF0220FFF7A0FF07
S315200001C0FB1D1B781800FFF7B9FFC046BD4602B0DD
S315200001D080BD80B582B000AF0200FB1D1A700220E0
S315200001E0FFF78EFF0120FFF772FFFB1D1B7818001B
S315200001F0FFF7A4FFC046BD4602B080BD90B583B0D0
S3152000020000AF0B4B00221A700120FFF779FF022066
S31520000210FFF75DFFFC1DFFF7ADFF03002370044BC6
S3152000022055221A70FB1D1B781800BD4603B090BDE1
S315200002300110024090B583B000AF0B4B00221A701C
S315200002400120FFF744FF0220FFF741FFFC1DFFF7C7
S3152000025091FF03002370044B55221A70FB1D1B7857
S315200002601800BD4603B090BD0110024080B582B093
S3152000027000AF0200FB1D1A70C046FFF7BFFF030048
S315200002801A0080231340802BF7D00820FFF7F8FEB2
S31520000290FB1D1B781800FFF787FF0220FFF706FFDC
S315200002A0C046BD4602B080BD80B582B000AF020018
S315200002B0FB1D1A70C046FFF7A1FF03001A0080231A
S315200002C01340802BF7D00820FFF7DAFEFB1D1B78A2
S315200002D01800FFF77EFF2B20FFF7D2FEC046BD4653
S315200002E002B080BD80B584B000AF786039607B688D
S315200002F0DAB20F23FB18013A1A703B68022B05D19C
S315200003000F22BB18BA18127840321A700F23FB1826
S315200003101B78802252421343DBB21800FFF744FFBA
S31520000320C046BD4604B080BD80B500AF3820FFF77B
S315200003309DFF0E20FFF79AFF0120FFF797FF06206B
S31520000340FFF794FFC046BD4680BDB0B58CB000AF68
S31520000350786039601C243B191D4A23CA23C312889E
S315200003601A800C23FB181B4A23CA23C31188198021
S3152000037092789A70FFF74CFEFFF7D6FF01210120F5
S31520000380FFF7B0FF3B19FB6206E0FB6A5A1CFA62D4
S315200003901B781800FFF788FFFB6A1B78002BF4D127
S315200003A002210120FFF79EFF0C23FB18FB6206E0CB
S315200003B0FB6A5A1CFA621B781800FFF775FFFB6A66
S315200003C01B78002BF4D100231800BD460CB0B0BD1D
S315200003D0D8030020E8030020416C66616E756D65C8
S315200003E07269736B20000000446973706C61792018
S30D200003F02D20746573740000D2
S70520000000DA
