S01300002E2F44656275672F377365672E733139F8
S315200000000248854600F0FCF8FEE7C04600C0012005
S3152000001080B500AF054B064A1A60064B0F221A70B0
S31520000020054BAA221A80C046BD4680BD000C024060
S3152000003055550055050C02401C0C024080B582B077
S3152000004000AF78607B68042B19D87B689A000E4B2A
S31520000050D3181B689F460D4B10221A700FE00B4BCE
S3152000006020221A700BE0094B40221A7007E0074B3A
S3152000007080221A7003E0054B00221A70C046C04643
S31520000080BD4602B080BDC04618020020150C0240B5
S3152000009080B582B000AF124AFB1D12781A70FB1D84
S315200000A01B780822134001D0042315E0FB1D1B7882
S315200000B00422134001D003230EE0FB1D1B780222ED
S315200000C0134001D0022307E0FB1D1B7801221340B9
S315200000D001D0012300E000231800BD4602B080BDF8
S315200000E0110C024090B587B000AF3B00164A13CAE8
S315200000F013C312681A6001237B6119E07B6918001B
S31520000100FFF79CFFFFF7C4FF03003B613B69002B11
S315200001100BD00020FFF792FF7B69013B9A003B69D9
S31520000120013BD3183A00D35C09E07B6901337B613C
S315200001307B69042BE2DD0020FFF780FFFF231800F8
S31520000140BD4607B090BDC0462C02002080B582B0C7
S3152000015000AF0200FB1D1A70FB1D1B780F2B44D825
S315200001609A00254BD3181B689F46244B3F221A70B2
S315200001703EE0224B06221A703AE0204B5B221A7090
S3152000018036E01E4B4F221A7032E01C4B66221A7044
S315200001902EE01A4B6D221A702AE0184B7D221A7017
S315200001A026E0164B07221A7022E0144B7F221A7083
S315200001B01EE0124B6F221A701AE0104B77221A702B
S315200001C016E00E4B7C221A7012E00C4B39221A7064
S315200001D00EE00A4B5E221A700AE0084BF9221A70CA
S315200001E006E0064BF1221A7002E0044BFF221A7039
S315200001F0C046BD4602B080BD3C020020140C024021
S3152000020080B500AFFFF704FFFFF76CFF030018006F
S31520000210FFF79CFFF8E7C046760000205600002036
S315200002205E000020660000206E0000200102030A06
S315200002300405060B0708090C0E000F0D6A010020A5
S31520000240720100207A010020820100208A0100200C
S31520000250920100209A010020A2010020AA0100207C
S31520000260B2010020BA010020C2010020CA010020EC
S31120000270D2010020DA010020E20100206B
S70520000000DA
