S01400002E2F44656275672F75706735372E733139B5
S315200000000248854600F0A3F9FEE7C04600C001205D
S3152000001080B500AF054B064A1A60064B00221A60CF
S31520000020054B034A1A60C046BD4680BD00100240FB
S3152000003055555555101002402010024080B500AF8E
S315200000400C4B00221A600C4B29221A600B4B002203
S315200000501A60084B05221A60C046064B1A68802390
S315200000605B021340F9D0034B00221A60C046BD46FE
S3152000007080BDC04610E000E014E000E018E000E09B
S3152000008080B582B000AF786007E0FFF7D7FFFFF7B3
S31520000090D5FFFFF7D3FFFFF7D1FF7B685A1E7A60A3
S315200000A0002BF2D1C046BD4602B080BD80B582B0DD
S315200000B000AF786002E00A20FFF7E2FF7B685A1E55
S315200000C07A60002BF7D1C046BD4602B080BD80B510
S315200000D082B000AF0200FB1D1A70084B1B78DAB203
S315200000E0FB1D1B781343DBB2044A04210B43DBB20E
S315200000F01370C046BD4602B080BDC04614100240F3
S3152000010080B582B000AF0200FB1D1A700A4B1B7827
S31520000110DBB25BB2FA1D127852B2D24352B204213C
S315200001200A4352B213405AB2034BD2B21A70C04697
S31520000130BD4602B080BDC0461410024080B582B0D4
S3152000014000AF4020FFF7C3FFFFF778FFFFF776FFEA
S31520000150064AFB1D12781A704020FFF7D1FFFB1DBF
S315200001601B781800BD4602B080BDC0461010024064
S3152000017080B582B000AF0200FB1D1A70FFF75EFF4C
S315200001804020FFF7A4FF074AFB1D1B781370FFF7DB
S3152000019055FF4020FFF7B4FFFFF750FFC046BD468E
S315200001A002B080BD1510024090B583B000AF0B4B56
S315200001B000221A800220FFF78AFF0120FFF7A0FF06
S315200001C0FC1DFFF7BBFF03002370044B044A1A8073
S315200001D0FB1D1B781800BD4603B090BD04100240DD
S315200001E05555000080B582B000AF0200FB1D1A7085
S315200001F00120FFF785FF0220FFF782FFFB1D1B78FA
S315200002001800FFF7B5FFC046BD4602B080BD80B5D9
S3152000021082B000AF0200FB1D1A700220FFF770FFAC
S315200002200120FFF754FFFB1D1B781800FFF7A0FFE6
S31520000230C046BD4602B080BD90B583B000AF0A4B24
S3152000024000221A800120FFF742FF0220FFF73FFF1E
S31520000250FC1DFFF773FF03002370034B034A1A802C
S31520000260C046BD4603B090BD04100240555500005F
S3152000027080B582B000AF0200FB1D1A70C046FFF7A2
S3152000028093FF03001A0080231340802BF7D0082009
S31520000290FFF7F6FEFB1D1B781800FFF7A3FF0220D1
S315200002A0FFF704FFC046BD4602B080BD80B500AF53
S315200002B03820FFF7DDFF0E20FFF7DAFF0120FFF7DA
S315200002C0D7FF0420FFF7D4FFC046BD4680BD80B5CA
S315200002D082B000AF0200FB1D1A70C046FFF764FF14
S315200002E003001A0080231340802BF7D00820FFF745
S315200002F0C7FEFB1D1B781800FFF789FF2B20FFF791
S31520000300BFFEC046BD4602B080BD80B584B000AFFA
S31520000310786039607B68DAB20F23FB18013A1A70CD
S315200003203B68022B05D10F22BB18BA18127840322F
S315200003301A700F23FB181B78802252421343DBB21C
S315200003401800FFF74FFFC046BD4604B080BDB0B5CC
S315200003508AB000AF14243B191C4A23CA23C312882F
S315200003601A803B1D1A4A23CA23C311881980927802
S315200003709A70FFF74DFEFFF799FF01210120FFF745
S31520000380C4FF3B197B6206E07B6A5A1C7A621B78A3
S315200003901800FFF79CFF7B6A1B78002BF4D1022103
S315200003A00120FFF7B2FF3B1D7B6206E07B6A5A1CE9
S315200003B07A621B781800FFF78AFF7B6A1B78002B6E
S315200003C0F4D1C046BD460AB0B0BDC046D403002015
S315200003D0E4030020416C66616E756D657269736B0E
S315200003E020000000446973706C6179202D207465AB
S309200003F073740000FC
S70520000000DA
