S01600002E2F44656275672F75706735375F322E73313922
S315200000000248854600F0AAF9FEE7C04600C0012056
S3152000001080B500AF054B064A1A60064B00221A60CF
S31520000020054B034A1A60C046BD4680BD00100240FB
S3152000003055555555101002402010024080B500AF8E
S315200000400C4B00221A600C4B29221A600B4B002203
S315200000501A60084B05221A60C046064B1A68802390
S315200000605B021340F9D0034B00221A60C046BD46FE
S3152000007080BDC04610E000E014E000E018E000E09B
S3152000008080B582B000AF78600AE0FFF7D7FFFFF7B0
S31520000090D5FFFFF7D3FFFFF7D1FF7B68013B7B60DE
S315200000A07B68002BF1D1C046BD4602B080BD80B52D
S315200000B082B000AF786002E00A20FFF7E1FF7B689C
S315200000C05A1E7A60002BF7D1C046BD4602B080BDCD
S315200000D080B582B000AF0200FB1D1A70074B1B785B
S315200000E0DAB2FB1D1B781343DBB2044A04210B430F
S315200000F0DBB21370C046BD4602B080BD141002406C
S3152000010080B582B000AF0200FB1D1A700A4B1B7827
S31520000110DBB25BB2FA1D127852B2D24352B204213C
S315200001200A4352B213405AB2034BD2B21A70C04697
S31520000130BD4602B080BDC0461410024080B582B0D4
S3152000014000AF4020FFF7C4FFFFF778FFFFF776FFE9
S31520000150064AFB1D12781A704020FFF7D1FFFB1DBF
S315200001601B781800BD4602B080BDC0461010024064
S3152000017080B582B000AF0200FB1D1A70FFF75EFF4C
S315200001804020FFF7A5FF074AFB1D1B781370FFF7DA
S3152000019055FF4020FFF7B4FFFFF750FFC046BD468E
S315200001A002B080BD1510024090B583B000AF0B4B56
S315200001B000221A600220FFF78BFF0120FFF7A0FF25
S315200001C0FC1DFFF7BBFF03002370044B044A1A6093
S315200001D0FB1D1B781800BD4603B090BD00100240E1
S315200001E05555000080B582B000AF0200FB1D1A7085
S315200001F00120FFF785FF0220FFF782FFFB1D1B78FA
S315200002001800FFF7B5FFC046BD4602B080BD80B5D9
S3152000021082B000AF0200FB1D1A700220FFF770FFAC
S315200002200120FFF755FFFB1D1B781800FFF7A0FFE5
S31520000230C046BD4602B080BD90B583B000AF0A4B24
S3152000024000221A600120FFF743FF0220FFF740FF3C
S31520000250FC1DFFF773FF03002370034B034A1A604C
S31520000260C046BD4603B090BD001002405555000063
S3152000027080B582B000AF0200FB1D1A700AE008208C
S31520000280FFF7FEFEFB1D1B781800FFF7ABFF0220D1
S31520000290FFF70DFFFFF788FF03001A0080231340A6
S315200002A0802BECD0C046BD4602B080BD80B500AFE5
S315200002B03820FFF797FF0E20FFF794FF0120FFF766
S315200002C0D7FF0420FFF78EFFC046BD4680BD80B510
S315200002D084B000AF786039607B68DAB20F23FB18F0
S315200002E0013A1A703B68012B0CD07B68DBB2013BCC
S315200002F0DBB240221343D9B20F22BB18BA181278A8
S315200003008A181A700F23FB181B7880225242134337
S31520000310DBB21800FFF766FF2D20FFF7B1FEC046BF
S31520000320BD4604B080BD80B582B000AF0200FB1D83
S315200003301A7007E00820FFF7A3FEFB1D1B781800A4
S31520000340FFF765FFFFF730FF03001A0080231340F5
S31520000350802BEFD0C046BD4602B080BDB0B58AB076
S3152000036000AF14243B191C4A23CA23C312781A70DF
S315200003703B1D1A4A23CA23C31188198092789A7082
S31520000380FFF746FEFFF792FF01210120FFF79FFFAF
S315200003903B197B6206E07B6A5A1C7A621B7818003E
S315200003A0FFF7C1FF7B6A1B78002BF4D102210120C5
S315200003B0FFF78DFF3B1D7B6206E07B6A5A1C7A6243
S315200003C01B781800FFF7AFFF7B6A1B78002BF4D150
S315200003D0C046BD460AB0B0BDE0030020F0030020B1
S315200003E0416C66616E756D657269736B0000000005
S315200003F0446973706C6179202D20746573740000D4
S70520000000DA
