S01700002E2F44656275672F6175746F706F6E672E733139FD
S315200000000248854600F0C2FBFEE7C04600C001203C
S3152000001080B500AF0C4B00221A600C4B29221A60C7
S315200000200B4B00221A60084B05221A60C046064B6D
S315200000301A6880235B021340F9D0034B00221A6012
S31520000040C046BD4680BDC04610E000E014E000E09A
S3152000005018E000E080B500AFFFF7DAFFFFF7D8FF22
S31520000060C046BD4680BD80B582B000AF786007E04F
S31520000070FFF7CEFFFFF7CCFFFFF7CAFFFFF7C8FF5A
S315200000807B685A1E7A60002BF2D1C046BD4602B06C
S3152000009080BD80B582B000AF786002E00A20FFF70D
S315200000A0E2FF7B685A1E7A60002BF7D1C046BD4618
S315200000B002B080BD80B582B000AF0200FB1D1A7071
S315200000C00A4B1B78DAB20949FB1D1B781343DBB2B6
S315200000D00B70064B1B78DBB2044A04218B43DBB240
S315200000E01370C046BD4602B080BDC0461410024003
S315200000F080B582B000AF0200FB1D1A70084B1B783A
S31520000100DBB2FA1D127804210A43D2B2D243D2B20C
S3152000011003491340DBB20B70C046BD4602B080BD1A
S315200001201410024080B582B000AF0200FB1D1A7089
S31520000130FB1D1B78082B0CD002DC002B05D01AE007
S31520000140102B0DD0182B12D015E01820FFF7D0FF5A
S3152000015011E00820FFF7AEFF1020FFF7C9FF0AE0E5
S315200001601020FFF7A7FF0820FFF7C2FF03E01820A3
S31520000170FFF7A0FFC046C046BD4602B080BD80B591
S3152000018082B000AF4020FFF7B3FF164B164A1A6025
S315200001900120FFF7ADFF0220FFF78CFFFFF75AFF84
S315200001A04020FFF787FFFFF755FF104B1B78DAB289
S315200001B0FB1D7F218A431A704020FFF799FFFFF726
S315200001C049FFFB1D1B78002B00D0E9E7C0464020E5
S315200001D0FFF770FF034B064A1A60C046BD4602B0C1
S315200001E080BDC04600100240555500001110024047
S315200001F05555555580B584B000AF0200FB1D1A70C9
S315200002004020FFF775FF1C4B1C4A1A600320FFF79E
S3152000021051FFFB1D1B781800FFF784FFFFF71AFF1D
S315200002204020FFF747FFFFF715FF154A0F23FB185E
S3152000023012781A704020FFF75BFF0F4B114A1A60A5
S31520000240FB1D1B780822134004D00820FFF76AFF05
S31520000250FFF795FFFB1D1B781022134004D01020BA
S31520000260FFF760FFFFF78BFF0F23FB181B781800A3
S31520000270BD4604B080BDC046001002405555000062
S31520000280111002405555555580B582B000AF020079
S31520000290FB1D1A70FB1D1B781800FFF7ABFFFB1D1B
S315200002A01B781800FFF7A6FF03001800BD4602B012
S315200002B080BD80B582B000AF0200FB1D1A70BB1D49
S315200002C00A1C1A70194AFB1D1B781370BB1D1B785C
S315200002D01800FFF727FFFFF7BDFE4020FFF7EAFED5
S315200002E0FFF7B8FE4020FFF703FFBB1D1B7808224F
S315200002F0134004D00820FFF715FFFFF740FFBB1D72
S315200003001B781022134004D01020FFF70BFFFFF7B5
S3152000031036FF064B00221A704020FFF7CBFE002046
S31520000320FFF700FFC046BD4602B080BD1510024053
S3152000033080B582B000AF0200FB1D1A70BB1D0A1CDF
S315200003401A704020FFF7D4FEBB1D1B781800FFF75C
S31520000350E9FE0320FFF7CCFEBB1D1A78FB1D1B7898
S3152000036011001800FFF7A5FFC046BD4602B080BDAC
S3152000037080B582B000AF0200FB1D1A70BB1D0A1C9F
S315200003801A704020FFF7B4FEBB1D1B781800FFF73C
S31520000390C9FE0120FFF78EFE0220FFF7A9FEBB1D36
S315200003A01A78FB1D1B7811001800FFF782FFC04644
S315200003B0BD4602B080BD80B582B000AF00237B6011
S315200003C01EE07B685BB24822524213435BB2DBB22B
S315200003D018211800FFF7ACFF18214020FFF7A8FFCF
S315200003E000233B6006E018210020FFF7C1FF3B6891
S315200003F001333B603B683E2BF5DD7B6801337B6038
S315200004007B68062BDDDDC046BD4602B080BDB0B59B
S3152000041088B000AFF860B9607A60FB68002B00D125
S31520000420ABE0BB68002B00D1A7E0FB68802B00D98E
S31520000430A3E0BB68402B00D99FE0BB68013BDB08EB
S31520000440BB61BB68013B07221340072B2CD89A00BF
S315200004504C4BD3181B689F461F23FB1801221A708A
S3152000046022E01F23FB1802221A701DE01F23FB180F
S3152000047004221A7018E01F23FB1808221A7013E0B2
S315200004801F23FB1810221A700EE01F23FB182022B0
S315200004901A7009E01F23FB1840221A7004E01F235C
S315200004A0FB1880221A70C0467B68002B05D11F22BC
S315200004B0BB18BA181278D2431A70FB68402B07D99A
S315200004C01E23FB1810221A70FB68413BFB6006E0D6
S315200004D01E23FB1808221A70FB68013BFB60FB6891
S315200004E0DBB240221343DAB21E257B191B78190092
S315200004F01000FFF71DFFBB695BB24822524213432F
S315200005005BB2DAB27B191B7819001000FFF710FFD7
S315200005101723FC187B191B781800FFF7B5FE03007C
S315200005202370FB68DBB240221343DAB27B191B78B7
S3152000053019001000FFF7FCFE7B68012B09D11F2252
S31520000540BB18B9181722BA18097812780A431A70F4
S3152000055008E01F22BB18BA181721791812780978D3
S315200005600A401A701E23FB181A781F23FB181B78C3
S3152000057011001800FFF7FCFE00E0C046BD4608B09B
S31520000580B0BDC0461808002080B584B000AFF86022
S31520000590B9607A60FB68BA685A60FB687A689A60C4
S315200005A0C046BD4604B080BD80B584B000AF78603B
S315200005B00023FB601FE07B681A68FB6804335B003E
S315200005C0D31804331B781A007B68DB68D31818000D
S315200005D07B681A68FB6804335B00D31805331B78E5
S315200005E01A007B681B69D31801221900FFF70FFF39
S315200005F0FB680133FB607B681B681B68FA689A42BC
S31520000600D9DBC046BD4604B080BD80B584B000AFFE
S3152000061078600023FB601FE07B681A68FB68043360
S315200006205B00D31804331B781A007B68DB68D31869
S3152000063018007B681A68FB6804335B00D3180533FF
S315200006401B781A007B681B69D31800221900FFF754
S31520000650DEFEFB680133FB607B681B681B68FA685B
S315200006609A42D9DBC046BD4604B080BD80B582B073
S3152000067000AF78607B681800FFF7C7FF7B685A6871
S315200006807B68DB68D2187B68DA607B689A687B684F
S315200006901B69D2187B681A617B68DB68002B04DC37
S315200006A07B685B68DA437B685A607B68DB68802BF3
S315200006B004DC7B681B685B68802B04DD7B685B68D9
S315200006C0DA437B685A607B681B69002B04DC7B68F5
S315200006D09B68DA437B689A607B681B69402B04DC45
S315200006E07B681B689B68402B04DD7B689B68DA432C
S315200006F07B689A607B681800FFF756FFC046BD46A8
S3152000070002B080BD80B500AF4020FFF7D3FC0A20A1
S31520000710FFF7A9FC7820FFF7EBFC1E20FFF7B9FCBA
S315200007202020FFF7C7FC6420FFF7B3FC18213E20EA
S31520000730FFF7FEFD18213F20FFF7FAFD1821C02004
S31520000740FFF7F6FD18214020FFF7F2FD1821B8200B
S31520000750FFF7EEFD0020FFF7E5FCC046BD4680BD55
S3152000076080B500AF054B064A1A60064B00221A8058
S31520000770054B034A1A60C046BD4680BD00100240A4
S3152000078055555555081002402010024080B584B0BA
S3152000079000AF78603960094BFB60FFF7E1FFFFF798
S315200007A0B1FFFB681B6AF8680A220F219847FB688D
S315200007B0DB69FA6810009847F9E7C046F40700207D
S315200007C00C000000040000000400000000010002EC
S315200007D001000101010201030200020102020203DB
S315200007E003010302000000000000000000000000DA
S315200007F000000000C00700200000000000000000EC
S315200008000100000001000000A90500200B060020C1
S315200008106D0600208905002058040020620400206F
S315200008206C04002076040020800400208A04002026
S30D20000830940400209E04002020
S70520000000DA
